{
  "contractName": "LeekerToken",
  "abi": [
    {
      "inputs": [],
      "payable": false,
      "stateMutability": "nonpayable",
      "type": "constructor"
    },
    {
      "constant": true,
      "inputs": [],
      "name": "totalSupply",
      "outputs": [
        {
          "internalType": "uint256",
          "name": "",
          "type": "uint256"
        }
      ],
      "payable": false,
      "stateMutability": "view",
      "type": "function"
    }
  ],
  "bytecode": "0x6080604052348015600f57600080fd5b50629896806000819055506084806100286000396000f3fe6080604052348015600f57600080fd5b506004361060285760003560e01c806318160ddd14602d575b600080fd5b60336049565b6040518082815260200191505060405180910390f35b6000548156fea265627a7a723158203a5c1805b109a3926364e98fefe8ab39e0f658100107ac01ae09b33af3b512f464736f6c63430005100032",
  "source": "pragma solidity ^0.5.16;\n\ncontract LeekerToken {\n    // constructer\n    // set the total number of tokens\n    // Read the total number of tokens\n\n  uint256 public totalSupply;\n\n  constructor() public {\n   totalSupply = 10000000;\n\n}\n}",
  "sourcePath": "/Users/chensijian/leekerswap/contracts/leekertoken.sol",
  "compiler": {
    "name": "solc",
    "version": "0.5.16+commit.9c3226ce.Emscripten.clang"
  },
  "schemaVersion": "3.4.0",
  "updatedAt": "2021-05-07T08:02:59.132Z",
  "networkType": "ethereum",
  "devdoc": {
    "methods": {}
  },
  "userdoc": {
    "methods": {}
  }
}